{
  "contractName": "Balance",
  "abi": [
    {
      "inputs": [],
      "payable": false,
      "stateMutability": "nonpayable",
      "type": "constructor"
    },
    {
      "constant": true,
      "inputs": [],
      "name": "getBalanceOfContract",
      "outputs": [
        {
          "internalType": "uint256",
          "name": "",
          "type": "uint256"
        }
      ],
      "payable": false,
      "stateMutability": "view",
      "type": "function"
    },
    {
      "constant": true,
      "inputs": [],
      "name": "getBalanceOfOwner",
      "outputs": [
        {
          "internalType": "uint256",
          "name": "",
          "type": "uint256"
        }
      ],
      "payable": false,
      "stateMutability": "view",
      "type": "function"
    },
    {
      "constant": true,
      "inputs": [],
      "name": "getBalanceOfSender",
      "outputs": [
        {
          "internalType": "uint256",
          "name": "",
          "type": "uint256"
        }
      ],
      "payable": false,
      "stateMutability": "view",
      "type": "function"
    }
  ],
  "bytecode": "0x608060405234801561001057600080fd5b50336000806101000a81548173ffffffffffffffffffffffffffffffffffffffff021916908373ffffffffffffffffffffffffffffffffffffffff160217905550610153806100606000396000f3fe608060405234801561001057600080fd5b50600436106100415760003560e01c80632296888514610046578063be6d91e614610064578063d8c2454114610082575b600080fd5b61004e6100a0565b6040518082815260200191505060405180910390f35b61006c6100bf565b6040518082815260200191505060405180910390f35b61008a6100de565b6040518082815260200191505060405180910390f35b60003073ffffffffffffffffffffffffffffffffffffffff1631905090565b60003373ffffffffffffffffffffffffffffffffffffffff1631905090565b60008060009054906101000a900473ffffffffffffffffffffffffffffffffffffffff1673ffffffffffffffffffffffffffffffffffffffff163190509056fea265627a7a72315820fd7cf645658b0d85ef6553067605680d25e94e0a6c849ab4fbfc09a51e9c9d7864736f6c634300050c0032",
  "source": "pragma solidity >=0.4.21 <0.6.0;\n\n\ncontract Balance{\n    address owner;\n\n\n    constructor() public{\n        owner = msg.sender;\n    }\n\n\n    modifier onlyOwner(){\n        // only owner modifiew\n        require(msg.sender == owner);\n        _;\n    }\n\n    function getBalanceOfContract() public view returns(uint){\n        return address(this).balance;\n    }\n\n    function  getBalanceOfOwner() public view returns(uint){\n        return owner.balance;        \n    }\n\n    function getBalanceOfSender() public view returns(uint){\n        return msg.sender.balance;\n    }\n    \n}",
  "sourcePath": "/home/goodness/Development/ethereum/contract_eth/contracts/Balance.sol",
  "compiler": {
    "name": "solc",
    "version": "0.5.12+commit.7709ece9.Emscripten.clang"
  },
  "schemaVersion": "3.0.19",
  "updatedAt": "2019-12-17T16:16:55.283Z",
  "networkType": "ethereum",
  "devdoc": {
    "methods": {}
  },
  "userdoc": {
    "methods": {}
  }
}