{
  "contractName": "Greeter",
  "abi": [
    {
      "inputs": [
        {
          "internalType": "string",
          "name": "_greeting",
          "type": "string"
        }
      ],
      "payable": false,
      "stateMutability": "nonpayable",
      "type": "constructor"
    },
    {
      "constant": true,
      "inputs": [],
      "name": "greeting",
      "outputs": [
        {
          "internalType": "string",
          "name": "",
          "type": "string"
        }
      ],
      "payable": false,
      "stateMutability": "view",
      "type": "function"
    },
    {
      "constant": true,
      "inputs": [],
      "name": "owner",
      "outputs": [
        {
          "internalType": "address",
          "name": "",
          "type": "address"
        }
      ],
      "payable": false,
      "stateMutability": "view",
      "type": "function"
    },
    {
      "constant": false,
      "inputs": [
        {
          "internalType": "string",
          "name": "_newGreeting",
          "type": "string"
        }
      ],
      "name": "setGreeting",
      "outputs": [],
      "payable": false,
      "stateMutability": "nonpayable",
      "type": "function"
    },
    {
      "constant": true,
      "inputs": [],
      "name": "sayHello",
      "outputs": [
        {
          "internalType": "string",
          "name": "",
          "type": "string"
        }
      ],
      "payable": false,
      "stateMutability": "view",
      "type": "function"
    }
  ],
  "bytecode": "0x608060405234801561001057600080fd5b506040516107da3803806107da8339818101604052602081101561003357600080fd5b810190808051604051939291908464010000000082111561005357600080fd5b8382019150602082018581111561006957600080fd5b825186600182028301116401000000008211171561008657600080fd5b8083526020830192505050908051906020019080838360005b838110156100ba57808201518184015260208101905061009f565b50505050905090810190601f1680156100e75780820380516001836020036101000a031916815260200191505b50604052505050806000908051906020019061010492919061014c565b5033600160006101000a81548173ffffffffffffffffffffffffffffffffffffffff021916908373ffffffffffffffffffffffffffffffffffffffff160217905550506101f1565b828054600181600116156101000203166002900490600052602060002090601f016020900481019282601f1061018d57805160ff19168380011785556101bb565b828001600101855582156101bb579182015b828111156101ba57825182559160200191906001019061019f565b5b5090506101c891906101cc565b5090565b6101ee91905b808211156101ea5760008160009055506001016101d2565b5090565b90565b6105da806102006000396000f3fe608060405234801561001057600080fd5b506004361061004c5760003560e01c80638da5cb5b14610051578063a41368621461009b578063ef5fb05b14610156578063ef690cc0146101d9575b600080fd5b61005961025c565b604051808273ffffffffffffffffffffffffffffffffffffffff1673ffffffffffffffffffffffffffffffffffffffff16815260200191505060405180910390f35b610154600480360360208110156100b157600080fd5b81019080803590602001906401000000008111156100ce57600080fd5b8201836020820111156100e057600080fd5b8035906020019184600183028401116401000000008311171561010257600080fd5b91908080601f016020809104026020016040519081016040528093929190818152602001838380828437600081840152601f19601f820116905080830192505050505050509192919290505050610282565b005b61015e6102f9565b6040518080602001828103825283818151815260200191508051906020019080838360005b8381101561019e578082015181840152602081019050610183565b50505050905090810190601f1680156101cb5780820380516001836020036101000a031916815260200191505b509250505060405180910390f35b6101e16103e6565b6040518080602001828103825283818151815260200191508051906020019080838360005b83811015610221578082015181840152602081019050610206565b50505050905090810190601f16801561024e5780820380516001836020036101000a031916815260200191505b509250505060405180910390f35b600160009054906101000a900473ffffffffffffffffffffffffffffffffffffffff1681565b61028a610484565b6102df576040517f08c379a00000000000000000000000000000000000000000000000000000000081526004018080602001828103825260248152602001806105826024913960400191505060405180910390fd5b80600090805190602001906102f59291906104dc565b5050565b6060610303610484565b15610345576040518060400160405280600b81526020017f48656c6c6f20576f726c6400000000000000000000000000000000000000000081525090506103e3565b60008054600181600116156101000203166002900480601f0160208091040260200160405190810160405280929190818152602001828054600181600116156101000203166002900480156103db5780601f106103b0576101008083540402835291602001916103db565b820191906000526020600020905b8154815290600101906020018083116103be57829003601f168201915b505050505090505b90565b60008054600181600116156101000203166002900480601f01602080910402602001604051908101604052809291908181526020018280546001816001161561010002031660029004801561047c5780601f106104515761010080835404028352916020019161047c565b820191906000526020600020905b81548152906001019060200180831161045f57829003601f168201915b505050505081565b6000600160009054906101000a900473ffffffffffffffffffffffffffffffffffffffff1673ffffffffffffffffffffffffffffffffffffffff163373ffffffffffffffffffffffffffffffffffffffff1614905090565b828054600181600116156101000203166002900490600052602060002090601f016020900481019282601f1061051d57805160ff191683800117855561054b565b8280016001018555821561054b579182015b8281111561054a57825182559160200191906001019061052f565b5b509050610558919061055c565b5090565b61057e91905b8082111561057a576000816000905550600101610562565b5090565b9056fe4f6e6c79204f776e65722043616e20506572666f726d20546869732046756e6374696f6ea265627a7a72315820ccf8fe6201168c1da8d71e3fd8a3f025ebd53b807fc6abc69b90d7c648c244b164736f6c634300050c0032",
  "source": "pragma solidity >=0.4.21 <0.6.0;\n\n\ncontract Greeter{\n    string public greeting;\n    address public owner;\n\n    modifier onlyOwner{\n        /// checks if its the owner performing the fuction\n        require(isOwner(), \"Only Owner Can Perform This Function\");\n        _;\n    }\n\n\n    constructor (string memory _greeting) public {\n        greeting = _greeting;\n        owner = msg.sender; // sets the deployer of the contract address to the property\n    }\n\n    function isOwner()view private returns(bool){\n        // checks if the address calling the function is the person performing the function\n        return msg.sender == owner;\n    }\n\n    function setGreeting(string memory _newGreeting) public onlyOwner{\n        greeting = _newGreeting;\n    }\n\n    function sayHello() public view returns(string memory){\n        if(isOwner()){\n            // says only to the deployer address\n            return  \"Hello World\";\n        }else{\n            return greeting;\n        }\n    }\n\n}",
  "sourcePath": "/home/goodness/Development/ethereum/contract_eth/contracts/Greeter.sol",
  "compiler": {
    "name": "solc",
    "version": "0.5.12+commit.7709ece9.Emscripten.clang"
  },
  "schemaVersion": "3.0.19",
  "updatedAt": "2019-12-17T15:10:49.378Z",
  "devdoc": {
    "methods": {}
  },
  "userdoc": {
    "methods": {}
  }
}