{
  "contractName": "Random",
  "abi": [
    {
      "constant": true,
      "inputs": [],
      "name": "randNonce",
      "outputs": [
        {
          "internalType": "uint256",
          "name": "",
          "type": "uint256"
        }
      ],
      "payable": false,
      "stateMutability": "view",
      "type": "function"
    },
    {
      "constant": false,
      "inputs": [],
      "name": "getRandomNumber",
      "outputs": [
        {
          "internalType": "uint256",
          "name": "",
          "type": "uint256"
        }
      ],
      "payable": false,
      "stateMutability": "nonpayable",
      "type": "function"
    }
  ],
  "bytecode": "0x60806040526000805534801561001457600080fd5b50610132806100246000396000f3fe6080604052348015600f57600080fd5b506004361060325760003560e01c806361e01356146037578063dbdff2c1146053575b600080fd5b603d606f565b6040518082815260200191505060405180910390f35b60596075565b6040518082815260200191505060405180910390f35b60005481565b6000804233600054604051602001808481526020018373ffffffffffffffffffffffffffffffffffffffff1673ffffffffffffffffffffffffffffffffffffffff1660601b815260140182815260200193505050506040516020818303038152906040528051906020012060001c90506000808154809291906001019190505550809150509056fea265627a7a7231582042218930322dadb3466abf10021869fe395f51f7a3ccd054e3635c81b2c6043964736f6c634300050c0032",
  "source": "pragma solidity >=0.4.21 <0.6.0;\n\n\ncontract Random{\n    uint public randNonce = 0;\n\n\n    function getRandomNumber()public  returns(uint){\n        uint rand = uint(keccak256(abi.encodePacked(now, msg.sender, randNonce)));\n         randNonce++;        \n        return rand;\n    }\n}",
  "sourcePath": "/home/goodness/Development/ethereum/contract_eth/contracts/Random.sol",
  "compiler": {
    "name": "solc",
    "version": "0.5.12+commit.7709ece9.Emscripten.clang"
  },
  "schemaVersion": "3.0.19",
  "updatedAt": "2019-12-17T17:05:10.933Z",
  "networkType": "ethereum",
  "devdoc": {
    "methods": {}
  },
  "userdoc": {
    "methods": {}
  }
}